:060000000A128A11122809
:10000800FE00030EF7000408F8000A08F90083123E
:1000180003137F08FA000A128A11D42C0A128A11D3
:100028001528C301C401C50183010A128A11F529E3
:1000380083120313BB002E30B2003208BC0001301B
:1000480083120313BB07FF303B0784000A128A118F
:100058000A230A128A11B2003208BD003D080319AA
:10006800080025303D06031940283D080A128A1168
:100078009E250A128A11232883120313B501912899
:100088003C08840083130008B9000030BA0001302E
:10009800B2003208BC0739083A04031D57285E30FD
:1000A800B9008030BA003A08FF00390884000A1203
:1000B8008A1100230A128A11003A031923283A08E0
:1000C800FF00390884000A128A1100230A128A11D3
:1000D8000A128A119E250A128A110130831203130B
:1000E800B9070318BA0A57283C0884008313000884
:1000F800B2003208BD000230B2003208BC073D0829
:100108000A128A119E250A128A112328C0308312E6
:100118000313B2003208B504A9280130BB07FF3029
:100128003B0784000A128A110A230A128A11BD00A9
:10013800003A03192029633A03197828103A031959
:100148004428063A03198A2883283C088400831324
:100158000008B600840A0008B7000230B20032086E
:10016800BC07BD01BD0A05303D060319DC283D0862
:10017800B2003207013E84000A128A110A230A12C9
:100188008A11B3000A128A110A230A128A11B400CA
:1001980034083702031DD22833083602031CDC2832
:1001A8000130B2003208BD0705303D06031DBB28EB
:1001B8003D08B2003208B800FF3083120313B200C2
:1001C8003208B807380A031923280A30A800003073
:1001D800A9003808B2003207013E84000A128A11C9
:1001E8000A230A128A11A0000A128A110A230A1283
:1001F8008A11A1003708A3003608A2000A128A1142
:10020800E2230A128A11831203132108AB00200883
:10021800AA000A128A1155240A128A11831203139A
:100228002808303EB3003308BD003D080A128A1181
:100238009E250A128A11E028080083160313D200AB
:10024800D301D401D601EC298C120A128A11F624A2
:100258000A128A1183120313BE003E088316031381
:10026800D3008C16530883120313BE000730031003
:10027800BE0CFF3E031D3B293E08BF003F08831606
:100288000313D40053087F3983120313BE003E08BA
:1002980083160313D60010305602031C08006A297F
:1002A800541C5A298312031306147A298312031340
:1002B80006107A2983160313541C66298312031324
:1002C80086147A298312031386107A298316031356
:1002D8005608103A03195429013A03195E29313A8C
:1002E80003195429013A03195E297A29831603133D
:1002F800560883120313BE00BF013E08AE003F0834
:10030800AF0065300A128A111C2008008C120A12EC
:100318008A11F6240A128A1183120313BE003E08BA
:1003280083160313D500550883120313BE00BF01BB
:100338003E08AE003F08AF004C300A128A111C205C
:100348000A128A11A0300A128A1120240A128A116C
:10035800A03083120313BE003E08AE0040300A12DC
:100368008A111C200A128A11831603135508831256
:100378000313BE003E08A30000300A128A11362576
:100388000A128A11223083120313A2008030A300BC
:100398000A128A11B0240A128A1183160313550807
:1003A80083120313BE003E08A30000300A128A110C
:1003B80036250A128A11A03083120313A2000030D6
:1003C800A3000A128A11B024831603138C1608009E
:1003D8005208713A03198A29E13A03192829F4299C
:1003E800080083120313C201033083160317880021
:1003F800890143308316031385008601FF30831279
:10040800031386008B1783160313871707131030FF
:1004180099009A01831603178715903083120313E6
:10042800980024308316031398000A128A118A252B
:100438000A128A110A128A1180230A128A110030BC
:100448000A128A1194250A128A113330831203136F
:10045800A2008030A3000A128A11B0240A128A115D
:1004680083120313A301A30A00300A128A11362546
:100478000A128A11553083120313A2008030A30098
:100488000A128A11B0240A128A110730831603133C
:10049800810081128B160B178C168230831203137E
:1004A800C100DD30C000C00B572AC10B572A0B30E2
:1004B8000A128A111C200A128A11C33083120313EC
:1004C800C100CC30C000C00B672AC10B672A0000EE
:1004D800831203134403031D7A2A45080A128A115A
:1004E80021210A128A1183120313C4014308420608
:1004F80003196C2A4308C0004008C2009230AE00BD
:100508000030AF004208C000C1014008B0004108F7
:10051800B1006C300A128A111C200A128A116C2A46
:10060000FF1B0A2B83137F1883170008840A031922
:10061000FF0A080003308A000408840A82070034B5
:10062000013400340A34003464340034E8340334D0
:10063000103427344534513420344434653476340E
:10064000203442346F3461347234643420342834BA
:1006500063342934203432343034313437340D3477
:10066000003420342034203420342034203420340A
:1006700020342034203420342034203420342034DA
:1006800020340034453451342034443465347634D5
:10069000203442346F3461347234643400344D3465
:1006A0006534733473346134673465343A342034D8
:1006B0002534733400344C3469346E34653420345A
:1006C000253475340A340034283463342934203412
:1006D0003234303431343734003428346E347534A5
:1006E0006C346C3429340034433468342034253479
:1006F00075340A34003425346334253463340034CB
:100700000630831603139F00303083120313A400B6
:100710002408A600851705110512851106080F3952
:10072000A4002408C600143083120313A5007930F6
:10073000A400A40B992BA50B992B83120313260855
:100740004604860005160512073083120313A50020
:100750007C30A400A40BAA2BA50BAA2B00008312AB
:10076000031305160512413083120313A400A40BD2
:10077000B72BBA2B831203130516051241308312CF
:100780000313A400A40BC22BC52B8312031346082A
:10079000203886000516051228300A128A1189248D
:1007A0000A128A110C300A128A1189240A128A113B
:1007B0000A128A114B250A128A1106300A128A116E
:1007C0008924080083120313A501A601200821042F
:1007D00003191B2CA701A70AA11BFA2B0130031038
:1007E000A00DA10DFF3E031DEF2B0130A400240836
:1007F000A707EC2B01300310A50DA60DFF3E031D2E
:10080000FB2B21082302031D072C20082202031CB6
:10081000102C2008A2022108031CA303A302251404
:1008200001300310A10CA00CFF3E031D112C013060
:10083000A702031DFA2B2608A1002508A000080026
:1008400083120313A8008C1A432C232C27080A12A6
:100850008A119E250A128A11831203132708A60003
:10086000280884002608831380000D302706031D06
:100870003D2C280884008001502C0130A600260859
:10088000A8070C18502C0A128A11F6240A128A1191
:1008900083120313A6002608A7002708031D262C91
:1008A000280884008313800108008312031328089A
:1008B00029040319842CAD01AD0AA91B6B2C01304E
:1008C0000310A80DA90DFF3E031D602C0130AC00E4
:1008D0002C08AD075D2C29082B02031D712C28085C
:1008E0002A02031C792C2808AA022908031CAB033E
:1008F000AB0201300310A90CA80CFF3E031D7A2C9B
:100900000130AD02031D6B2C2B08A9002A08A8009A
:10091000080083120313A10006080F39A000200865
:10092000C6000C3083120313A000A00B952C00000E
:10093000831203132108F0394604860005160512B8
:100940002108A00003300310A00DFF3E031DA32CBF
:100950000310200DF0394604860005160512080024
:100960008312031305152308FF00220884000A12CE
:100970008A1100230A128A11003A03190800230879
:10098000FF00220884000A128A1100230A128A1129
:100990000A128A1189240A128A1101308312031360
:1009A000A2070318A30AB32C8B1A0B1DDC2C0A1206
:1009B0008A117F250A128A11831603138C1EE92CD3
:1009C000831203138C1EE92C0A128A1173250A1252
:1009D0008A117A0883120313FF0079088A007808C5
:1009E0008400770E8300FE0E7E0E0900831203132F
:1009F0008E018F010C101014A5018C1A032D0C1CF4
:100A0000FD2CA501A50A250303190E2D1A08A00027
:100A1000A1012008A2002108A300102DA201A3011A
:100A20002208A0002008A400240808008312031351
:100A30008E018F010C101014F5018C1A232D0C1C43
:100A40001D2DF501F50A750303192E2D1A08F00066
:100A5000F1017008F2007108F300302DF201F3018A
:100A60007208F0007008F400740808008312031381
:100A7000A6002308A40006300310A40DFF3E031DAA
:100A80003C2D26082407A5002508A70027080A12E0
:100A90008A119425080083120313051101300A12EC
:100AA0008A1189240A128A11033083120313A300C6
:100AB0009730A200A20B5A2DA30B5A2D0800F1006B
:100AC0007108F00001300310F00DFF3E031D632D8F
:100AD0000310700DC13E831203139F009F149F18D3
:100AE0006F2D1E0808000A128A111625F6007608D6
:100AF00083120313C500C401C40A8C12080000301D
:100B00000A128A115F25F200720883120313C300D0
:100B10000B110800831203139F01831603139F0117
:100B2000831203131F14080083120313A20005117C
:100B30002208803E0A128A118924080083120313B6
:0C0B4000A0000C1EA12D20089900080048
:02400E00F4E0DC
:00000001FF
